:1000000096C0000001C100003CC10000ABC0000070
:10001000A9C00000A7C00000A5C00000A3C0000048
:10002000A1C000009FC00000DFC30000A9C4000001
:1000300099C0000097C0000095C0000093C0000068
:1000400091C000008FC000008DC000008BC0000078
:1000500089C0000087C0000085C0000083C0000088
:1000600081C000007FC000007DC000007BC0000098
:1000700079C0000077C0000075C0000073C00000A8
:1000800071C000006FC000006DC000006BC00000B8
:1000900069C0000067C0000065C0000063C00000C8
:1000A00061C000005FC000005DC000001803530085
:1000B00074007200650061006D002000440065005E
:1000C00063006B0000001203540076006F006A00AA
:1000D000650049006D006500000004030904090281
:1000E0003E00020100C032090400000102020100CA
:1000F000052400100104240206052406000107055A
:1001000082030800FF09040100020A00000007053D
:1001100004021000050705830210000512011001FA
:1001200002000008EB03442001000102DC0111245D
:100130001FBECFEFDAE0DEBFCDBF11E0A0E0B1E03F
:10014000ECECFFE002C005900D92A237B107D9F7A1
:1001500021E0A2E7B1E001C01D92AF3CB207E1F798
:10016000D9D032C74DCFCF93DF930F92CDB7DEB743
:1001700089838A3021F46DE086E491E0DFD56981DE
:1001800086E491E0DBD580E090E00F90DF91CF91A5
:10019000089586E491E044D68A3A51F497FD08C068
:1001A0006BEA86E491E0CAD56CEA86E491E0C6C5C4
:1001B00008950F931F93CF93DF93CEE0D1E0E881B2
:1001C000F981008110E08A8102C0159507958A9512
:1001D000E2F701708B81801761F08D818F5F8D83D5
:1001E000863940F0011104C06C8186E491E0A6D507
:1001F0000B831D82269681E0C833D80701F7DF9173
:10020000CF911F910F9108950F920FB60F924F93B8
:100210005F936F937F938F93EF93FF9389B1880FD1
:10022000827049998160E0917201809372014091DE
:100230007701509178016091790170917A01EE0F08
:10024000EE0FE82BEF70F0E0EF59FE4F8081082EA3
:10025000000C0008480F501D601D701D4093770171
:10026000509378016093790170937A01FF91EF9137
:100270008F917F916F915F914F910F900FBE0F9073
:1002800018951F920F920FB60F9211242F933F9340
:100290004F935F936F937F938F939F93AF93BF938E
:1002A000EF93FF93B1DFFF91EF91BF91AF919F91DA
:1002B0008F917F916F915F914F913F912F910F900F
:1002C0000FBE0F901F90189584B7877F84BF0FB61D
:1002D000F894A895809160008861809360001092E6
:1002E00060000FBE83E08DBB85E08093690080E7EE
:1002F00085B980E488B983ED8BB914B817B81AB8FA
:1003000080E890E00FB6F8948093610090936100CC
:100310000FBE4EC2D9DF789488E391E08093CB0181
:100320009093CC01C0E0D0E034DF43DF81E090E087
:10033000209709F480E0C81BD90BC0907701D090BA
:100340007801E0907901F0907A01809173019091A9
:100350007401A0917501B09176019601A701281B47
:10036000390B4A0B5B0BC901DA012097D9F4609174
:10037000050182309105A105B1053CF48F3F9F4FE7
:10038000AF4FBF4F7CF460910C0186E491E0D6D46E
:10039000C0927301D0927401E0927501F0927601DF
:1003A000C8EED3E086E491E025D58BD4BDCF86E4BA
:1003B00091E0A0C486E491E067C5292F30E02230A7
:1003C000310539F12330310559F021303105A1F4DF
:1003D00082E190E02CE131E0FA012083318308953D
:1003E000282F30E0813061F02230310579F0EAEDDC
:1003F000F0E02115310531F080E090E020E0ECCF15
:10040000E6ECF0E0849190E09F01E6CFECEAF0E0CA
:10041000F9CF8EE390E02EED30E0DECFFC012091AD
:10042000C6013091C7012617370720F06115710505
:1004300069F09B0190E02115310571F491110CC018
:100440008091E80082FF38C080E008959091E80034
:100450009E779093E800EDCF8091BF018115C1F1A7
:100460008530C1F18091E80083FD30C08091E800C3
:1004700082FDE6CF8091E80080FFDDCF8091F30020
:100480004091F200582F2115310519F048305105DF
:1004900058F091E04830510509F090E04091E800B3
:1004A0004E774093E800C7CF81918093F1002150AF
:1004B00031094F5F5F4FE7CF8091BF01811541F058
:1004C000853041F08091E80083FFBACF81E0089544
:1004D00082E0089583E00895FC012091C6013091E7
:1004E000C7012617370720F06115710569F09B01D8
:1004F00090E02115310571F491110CC08091E80054
:1005000082FF39C080E008958091E8008E77809363
:10051000E800EDCF8091BF018115C9F18530C9F1A7
:100520008091E80083FD31C08091E80082FDE6CF34
:100530008091E80080FFDDCF8091F3004091F200D0
:10054000582F2115310519F04830510558F091E028
:100550004830510509F090E08091E8008E77809353
:10056000E800C7CF84918093F10031962150310982
:100570004F5F5F4FE6CF8091BF01811541F085301D
:1005800041F08091E80083FFB9CF81E0089582E0D7
:10059000089583E00895982F973028F08F70809306
:1005A000E90081E008959093E900242F762F50E030
:1005B000981731F07091EC002091ED005091F0000F
:1005C00021FD02C09F5FE8CF3091EB003E7F30936A
:1005D000EB003091ED003D7F3093ED003091EB006A
:1005E00031603093EB007093EC002093ED0050935A
:1005F000F0002091EE0027FDE5CF80E008951F93E5
:10060000CF93DF9300D00F92CDB7DEB769838A8393
:100610009B8310E0B9811B1302C081E011C0AA8145
:10062000BB819C91911107C01F5FEA81FB813596C8
:10063000EA83FB83EFCF892F8F70873040F080E013
:100640000F900F900F90DF91CF911F910895AA8185
:10065000BB811196ED91FD916D912C9156E0223068
:1006600008F452E028E030E040E02E173F0768F041
:100670004295407F452B6295660F660F607C97FD23
:10068000616089DF8111D0CFDACF4F5F220F331F36
:10069000ECCF8091C00187FF13C08091E80082FFFA
:1006A00006C08091E8008B778093E80008958091E0
:1006B000BF018111F2CF08958091BF018115D9F357
:1006C0008091E80080FFF8CF8091E8008E77ECCF32
:1006D0002091E4003091E50095E6A9012091EC001D
:1006E000822F817020FF06C08091E80080FF06C045
:1006F00080E008952091E80022FD1AC08091BF019A
:10070000811589F0853089F08091EB0085FD0FC05F
:100710002091E4003091E50042175307F9F291501F
:10072000E1F684E0089582E0089583E0089581E091
:1007300008950F931F93CF93DF9349D050D0C8ED06
:10074000D0E088818F7788838881806888838881DA
:100750008F7D888319BC1092BF011092BE01109248
:10076000BC011092BD0100EE10E0F80180818B7F8A
:10077000808388818160888342E060E080E00BDFD5
:10078000E1EEF0E080818E7F8083E2EE8081816007
:100790008083808188608083E0EE80818E7F80838B
:1007A000888180618883DF91CF911F910F91089597
:1007B000E8EDF0E080818F7E8083E7ED80818160CD
:1007C000808384E082BF81E08093C801B2CFE8EDEE
:1007D000F0E080818E7F80831092E2000895109275
:1007E000DA001092E10008951F920F920FB60F9257
:1007F00011242F933F934F935F936F937F938F9326
:100800009F93AF93BF93EF93FF938091E10082FF9B
:100810000AC08091E20082FF06C08091E1008B7FD8
:100820008093E1004DD28091DA0080FF18C0809162
:10083000D80080FF14C08091DA008E7F8093DA00A8
:100840008091D90080FF8FC080E189BD82E189BDA0
:1008500009B400FEFDCF81E08093BF0131D28091C9
:10086000E10080FF18C08091E20080FF14C08091F9
:10087000E2008E7F8093E2008091E20080618093AD
:10088000E2008091D80080628093D80019BC85E096
:100890008093BF0115D28091E10084FF28C0809130
:1008A000E20084FF24C080E189BD82E189BD09B4F2
:1008B00000FEFDCF8091D8008F7D8093D80080917D
:1008C000E1008F7E8093E1008091E2008F7E809333
:1008D000E2008091E20081608093E2008091BE019D
:1008E000811509F445C084E08093BF01E9D180916E
:1008F000E10083FF27C08091E20083FF23C0809145
:10090000E100877F8093E10082E08093BF01109235
:10091000BE018091E1008E7F8093E1008091E20032
:100920008E7F8093E2008091E20080618093E200FC
:1009300042E060E080E02FDE8091F00088608093EC
:10094000F000BED1FF91EF91BF91AF919F918F9138
:100950007F916F915F914F913F912F910F900FBEBB
:100960000F901F90189519BC1092BF01A9D177CF95
:100970008091E30087FF02C083E0B6CF81E0B4CF6F
:100980001F920F920FB60F921124EF92FF920F93C6
:100990001F932F933F934F935F936F937F938F9307
:1009A0009F93AF93BF93CF93EF93FF9309EE10E024
:1009B000F8018081C091EC008F70C0FBCC27C7F993
:1009C000C82B1082E0EF8081877F808378941FD0CE
:1009D000F8011082E0EF808188608083CF70E9EEBB
:1009E000C083FF91EF91CF91BF91AF919F918F9174
:1009F0007F916F915F914F913F912F911F910F9137
:100A0000FF90EF900F900FBE0F901F9018951F93BF
:100A1000CF93DF93CDB7DEB7AA970FB6F894DEBFBA
:100A20000FBECDBF80EC91E0FC0101962091F1005A
:100A3000208321E0883C9207B9F7BCDC8091E80074
:100A400083FF10C08091C0019091C101953009F4DD
:100A5000D4C000F5292F2D7F213009F487C09115CE
:100A600009F45CC08091E80083FF0AC08091E8002F
:100A7000877F8093E8008091EB0080628093EB0099
:100A8000AA960FB6F894DEBF0FBECDBFDF91CF910F
:100A90001F910895983009F4E8C0993009F4F2C024
:100AA000963001F780588230E8F68091C20190912B
:100AB000C3018C3D53E0950709F0C2C083E08A83EF
:100AC0008AE289834FB7F894DE01139620E03EE076
:100AD00051E2E32FF0E050935700849120FF03C0D0
:100AE00082958F703F5F8F708A3008F4A7C0895C51
:100AF0008D931D922F5F243161F74FBF8091E800E5
:100B0000877F8093E8006AE270E0CE01019686DC80
:100B10008091E8008B778093E800A4CF803899F02B
:100B2000823809F09FCF8091C4018F70873008F020
:100B300099CF8093E9008091EB0085FB882780F9AD
:100B40001092E90006C08091BC01880F9091BD0110
:100B5000892B9091E800977F9093E8008093F100B3
:100B60001092F1008091E8008E7719C081110BC0BE
:100B70008091C201813009F075CF933009F080E097
:100B80008093BC0107C0823009F06CCF8091C20114
:100B9000811549F01092E9008091E800877F8093E9
:100BA000E80077DD5FCF8091C4018F702FEF280FB1
:100BB000263008F057CF8093E9002091EB0020FF0A
:100BC000E9CF933031F48091EB0080628093EB00A9
:100BD000E1CF9091EB0090619093EB0021E030E049
:100BE000A90101C0440F8A95EAF74093EA001092E8
:100BF000EA008091EB008860E9CF811133CF10913A
:100C0000C2011F778091E3008078812B8093E300FD
:100C10008091E800877F8093E8003BDD8091E800C9
:100C200080FFFCCF8091E30080688093E30083E045
:100C3000111101C082E08093BF0114CF805D58CFB5
:100C40006091C4017091C501AE014F5F5F4FB5DB8C
:100C5000BC01892B09F406CF9091E800977F90930F
:100C6000E80089819A8138DC53CF803809F0FACEC8
:100C70008091E800877F8093E8008091BE01809397
:100C8000F10070CF8111EECE9091C201923008F048
:100C9000E9CE8091E800877F8093E8009093BE01C1
:100CA000F8DC8091BE01811529F084E08093BF01BA
:100CB0007EDBD8CE8091E30087FDF7CF81E0F6CFD1
:100CC0000895CF938091BF01811591F08091E90043
:100CD000C091EC008F70C0FBCC27C7F9C82B1092D5
:100CE000E9008091E80083FD92DECF70C093E900B7
:100CF000CF910895CF93DF93EC01FC0170968BE0C8
:100D0000DF011D928A95E9F782E08C83898783E071
:100D10008E8761E0CE01019672DC811561F061E0A1
:100D2000CE0106966CDC811531F061E0CE010B96A8
:100D3000DF91CF9164CCDF91CF910895CF93DF9372
:100D40000F92CDB7DEB769832091BF01243011F532
:100D5000FC014489558966897789452B462B472BA9
:100D6000C9F081818F708093E9008091E80085FF50
:100D700008C0F981F093F10080E00F90DF91CF91EE
:100D800008958091E8008E778093E800A1DC8115BA
:100D900081F3F3CF82E0F1CF2091BF01243041F500
:100DA000FC014489558966897789452B462B472B59
:100DB000F9F081818F708093E9002091F300809198
:100DC000F200922F892B11F480E008959091E800B1
:100DD0008091E8008E778093E80095FDF5CF78DC70
:100DE000811107C09091E8009E779093E8000895E4
:100DF00082E008952091BF01243089F4FC014489E8
:100E0000558966897789452B462B472B41F02181EF
:100E10002F702093E9002091E80020FDBDCF0895B8
:100E20002091BF01243019F08FEF9FEF0895FC014E
:100E30004489558966897789452B462B472BA1F331
:100E400086818F708093E9008091E80082FFECCF6B
:100E50002091F3008091F200922F892B81F08091F4
:100E6000F10090E04091F3002091F200342F232B09
:100E700029F42091E8002B772093E80008958FEF64
:100E80009FEFF0CF08950895CF93DF93EC01809109
:100E9000E80083FF13C028818091C4019091C501AF
:100EA0002817190659F48091C101823209F477C0DC
:100EB00040F4803209F441C08132A9F0DF91CF9132
:100EC00008958332D9F78091C0018132B9F78091BA
:100ED000E800877F8093E800DCDB6091C201CE01EF
:100EE000DF91CF91D0CF8091C001813A39F78091C5
:100EF000E800877F8093E8008091E80080FFFCCFC6
:100F00008C899D89AE89BF898093F1009093F1000F
:100F1000A093F100B093F100888D8093F100898D4A
:100F20008093F1008A8D8093F1008091E8008E77A4
:100F30008093E800DF91CF91ACCB8091C0018132EA
:100F400009F0BCCF8091E800877F8093E800809112
:100F5000E80082FF1FC03091F1002091F1009091D4
:100F6000F1008091F1003C8B2D8B9E8B8F8B8091BB
:100F7000F100888F8091F100898F8091F1008A8F34
:100F80008091E8008B778093E80083DBCE01DF91CE
:100F9000CF9178CF8091BF018111D9CF8FCF809130
:100FA000C001813209F08ACF8091E800877F809369
:100FB000E8006FDB8091C2019091C301888B998B0F
:0C0FC000CE01DF91CF915ECFF894FFCFFF
:100FCC002900000101110029000101011200290072
:100FDC000401010029000601040029000701020098
:100FEC002300040105002300050103002300060172
:100FFC0006002600060107000000000200000000A9
:10100C00B300000000000083100000010410000079
:10101C000182080000010000000000000000000038
:10102C000000FF0100010000FFFF0000010001FFB4
:02103C000000B2
:00000001FF
